:100000000C945C000C9479000C9479000C947900A9
:100010000C9479000C9479000C9479000C94AE0146
:100020000C9479000C9479000C9479000C9479006C
:100030000C9479000C9479000C9479000C9479005C
:100040000C9464010C9479000C9479000C94790060
:100050000C9479000C9479000C9479000C9479003C
:100060000C9479000C947900000000080002010053
:100070000003040700000000000000000000000072
:10008000240027002A0001020408102040800102F9
:1000900004081020010204081020000000002500C0
:1000A00028002B00040404040404040402020202D5
:1000B000020203030303030311241FBECFEFD8E0A2
:1000C000DEBFCDBF11E0A0E0B1E0EAE1F8E002C0A0
:1000D00005900D92A830B107D9F721E0A8E0B1E072
:1000E00001C01D92A63CB207E1F70E942E020C94BB
:1000F0000B040C94000090E0FC01E859FF4F2491A0
:10010000FC01EA57FF4F3491FC01EC55FF4FE4919D
:10011000EE2309F43CC0222339F1233091F038F466
:100120002130A9F0223001F584B58F7D12C027302F
:1001300091F02830A1F02430B9F4809180008F7DB7
:1001400003C0809180008F77809380000DC084B5BC
:100150008F7784BD09C08091B0008F7703C08091F4
:10016000B0008F7D8093B000F0E0EE0FFF1FE656E9
:10017000FF4FA591B4919FB7F894611104C08C9181
:100180003095382302C0EC913E2B3C939FBF0895DD
:100190000F931F93CF93DF93E2E1F1E0AFEF90E095
:1001A000208187FF03C027FF06C060C0821719F0B7
:1001B000AF3F41F404C0658387FDFACF5BC0208167
:1001C00027FDA92F9F5F3996943151F787FD52C0C3
:1001D000AF3F09F44FC099E0A902D0011124AE5EEF
:1001E000BE4F8C939091110111969C931197082FFB
:1001F000082E000C110BE801CC55DF4FFE012491B5
:10020000E22FF0E0EE0FFF1FE656FF4F25913491ED
:1002100013963C932E9312970A571F4FF80124917F
:1002200014962C93149715966C93911102C060E06C
:1002300001C061E00E947B00F8010491FE01C491BD
:10024000CC23C1F0D0E0CC0FDD1FFE01E458FF4FFE
:10025000A591B491FE01E656FF4F859194919FB709
:10026000F8948C91082B0C939FBF04C0AF3F09F00A
:10027000A9CFA7CFDF91CF911F910F9108953FB7DD
:10028000F89480910D0190910E01A0910F01B09111
:10029000100126B5A89B05C02F3F19F00196A11D9E
:1002A000B11D3FBFBA2FA92F982F8827820F911D0C
:1002B000A11DB11DBC01CD0142E0660F771F881F53
:1002C000991F4A95D1F708951F920F920FB60F927A
:1002D00011242F933F938F939F93AF93BF9380915C
:1002E000090190910A01A0910B01B0910C0130918C
:1002F000080123E0230F2D3720F40196A11DB11D25
:1003000005C026E8230F0296A11DB11D2093080108
:100310008093090190930A01A0930B01B0930C0103
:1003200080910D0190910E01A0910F01B0911001EB
:100330000196A11DB11D80930D0190930E01A09314
:100340000F01B0931001BF91AF919F918F913F9199
:100350002F910F900FBE0F901F9018951F920F9224
:100360000FB60F9211242F933F934F936F937F9368
:100370008F939F93AF93BF93EF93FF93809102016D
:100380008F5F80930201882319F0E2E1F1E03CC025
:10039000E2E1F1E047812581411103C08085882396
:1003A000E1F030E0868190E0B901681B790B161608
:1003B000170644F4442389F0840F911D8217930794
:1003C00064F40AC0672B49F04085442331F0841B54
:1003D0009109281739070CF49C012683868188230C
:1003E00069F09181A281B3818481911103C09C91B4
:1003F000892B03C09C91809589238C93399681E049
:10040000E63CF80739F6C1CF808187FD12C08091A4
:100410000201968198130DC09181A281B3818481DC
:10042000911104C09C918095892302C09C91892BD5
:100430008C93399681E0E63CF80731F7FF91EF9114
:10044000BF91AF919F918F917F916F914F913F910C
:100450002F910F900FBE0F901F901895789484B530
:10046000826084BD84B5816084BD85B5826085BDB0
:1004700085B5816085BD80916E00816080936E003E
:100480001092810080918100826080938100809130
:1004900081008160809381008091800081608093E1
:1004A00080008091B10084608093B1008091B000A1
:1004B00081608093B00080917A00846080937A009C
:1004C00080917A00826080937A0080917A008160C6
:1004D00080937A0080917A00806880937A001092ED
:1004E000C10081E087BB82E08093B1008093B000BF
:1004F00092E89093B3008093700086EC91E0E2E183
:10050000F1E02FEF2083118213821282178210866E
:1005100039968E179F07B1F710921101C2E019E0CA
:10052000D8E060E08C2F0E94C800E2E1F1E080E0BA
:1005300090E02081C2130AC0189FF001199FF00DAE
:100540001124EE5EFE4FD783D08705C00196399601
:100550008431910571F7CF5FC43119F79AE0492EC4
:10056000512C612C712CC0E0D0E00E94510322E19B
:1005700030E040E050E00E94A803DC01CB0102968D
:10058000A11DB11D90930101809300010E945103B0
:10059000A30192010E94A803DC01CB010196A11DD9
:1005A000B11D049714F46FEF01C060E08091000169
:1005B0000E94C8000E943F014B015C0184E6C82EE6
:1005C000D12CE12CF12C0E943F01DC01CB018819D8
:1005D0009909AA09BB09883E9340A105B10598F382
:1005E00021E0C21AD108E108F10888EE880E83E004
:1005F000981EA11CB11CC114D104E104F10419F727
:10060000209709F4B2CF0E940000AFCF8F929F9243
:10061000AF92BF92CF92DF92EF92FF92CF93DF9390
:10062000EC01688179818A819B8161157105810561
:10063000910521F464E279ED8BE597E02DE133EF4C
:1006400041E050E00E94A80349015A019B01AC011E
:10065000A7EAB1E40E94C7036B017C01ACEEB4EFE2
:10066000A50194010E94D503DC01CB018C0D9D1DD9
:10067000AE1DBF1DB7FF03C00197A109B048888315
:100680009983AA83BB83BC01CD019F77DF91CF9172
:10069000FF90EF90DF90CF90BF90AF909F908F90A2
:1006A00008958F929F92AF92BF92CF92DF92EF9276
:1006B000FF92609103017091040180910501909176
:1006C0000601611571058105910521F464E279ED5A
:1006D0008BE597E02DE133EF41E050E00E94A80365
:1006E00049015A019B01AC01A7EAB1E40E94C7038A
:1006F0006B017C01ACEEB4EFA50194010E94D5031F
:10070000DC01CB018C0D9D1DAE1DBF1DB7FF03C0CD
:100710000197A109B0488093030190930401A0932D
:100720000501B0930601BC01CD019F77FF90EF90CA
:10073000DF90CF90BF90AF909F908F90089560937F
:1007400003017093040180930501909306010895BD
:10075000052E97FB1EF400940E94BF0357FD07D09F
:100760000E94DA0307FC03D04EF40C94BF035095AB
:100770004095309521953F4F4F4F5F4F089590958D
:100780008095709561957F4F8F4F9F4F08950E9480
:10079000FC03A59F900DB49F900DA49F800D911D0B
:1007A00011240895B7FF0C94C7030E94C703821B4E
:1007B000930B0895A1E21A2EAA1BBB1BFD010DC0CD
:1007C000AA1FBB1FEE1FFF1FA217B307E407F50701
:1007D00020F0A21BB30BE40BF50B661F771F881FDD
:1007E000991F1A9469F760957095809590959B0173
:1007F000AC01BD01CF010895A29FB001B39FC0011C
:10080000A39F700D811D1124911DB29F700D811D3C
:0A0810001124911D0895F894FFCF04
:08081A000D00FF0100000000C9
:107E0000112484B714BE81FFF0D085E080938100F7
:107E100082E08093C00088E18093C10086E0809377
:107E2000C20080E18093C4008EE0C9D0259A86E02C
:107E300020E33CEF91E0309385002093840096BBD3
:107E4000B09BFECF1D9AA8958150A9F7CC24DD24C4
:107E500088248394B5E0AB2EA1E19A2EF3E0BF2EE7
:107E6000A2D0813461F49FD0082FAFD0023811F036
:107E7000013811F484E001C083E08DD089C08234E0
:107E800011F484E103C0853419F485E0A6D080C0E4
:107E9000853579F488D0E82EFF2485D0082F10E0AE
:107EA000102F00270E291F29000F111F8ED06801E7
:107EB0006FC0863521F484E090D080E0DECF843638
:107EC00009F040C070D06FD0082F6DD080E0C81688
:107ED00080E7D80618F4F601B7BEE895C0E0D1E017
:107EE00062D089930C17E1F7F0E0CF16F0E7DF06D8
:107EF00018F0F601B7BEE89568D007B600FCFDCFD4
:107F0000A601A0E0B1E02C9130E011968C91119780
:107F100090E0982F8827822B932B1296FA010C0160
:107F200087BEE89511244E5F5F4FF1E0A038BF0790
:107F300051F7F601A7BEE89507B600FCFDCF97BE46
:107F4000E89526C08437B1F42ED02DD0F82E2BD052
:107F50003CD0F601EF2C8F010F5F1F4F84911BD097
:107F6000EA94F801C1F70894C11CD11CFA94CF0C13
:107F7000D11C0EC0853739F428D08EE10CD085E9AC
:107F80000AD08FE07ACF813511F488E018D01DD067
:107F900080E101D065CF982F8091C00085FFFCCF94
:107FA0009093C60008958091C00087FFFCCF809118
:107FB000C00084FD01C0A8958091C6000895E0E648
:107FC000F0E098E1908380830895EDDF803219F02E
:107FD00088E0F5DFFFCF84E1DECF1F93182FE3DFCA
:107FE0001150E9F7F2DF1F91089580E0E8DFEE27F6
:047FF000FF270994CA
:027FFE00040479
:0400000300007E007B
:00000001FF
